{
  "_format": "hh-sol-artifact-1",
  "contractName": "MyCoolNFT",
  "sourceName": "contracts/MyCoolNFT.sol",
  "abi": [
    {
      "inputs": [],
      "stateMutability": "nonpayable",
      "type": "constructor"
    },
    {
      "anonymous": false,
      "inputs": [
        {
          "indexed": true,
          "internalType": "address",
          "name": "owner",
          "type": "address"
        },
        {
          "indexed": true,
          "internalType": "address",
          "name": "approved",
          "type": "address"
        },
        {
          "indexed": true,
          "internalType": "uint256",
          "name": "tokenId",
          "type": "uint256"
        }
      ],
      "name": "Approval",
      "type": "event"
    },
    {
      "anonymous": false,
      "inputs": [
        {
          "indexed": true,
          "internalType": "address",
          "name": "owner",
          "type": "address"
        },
        {
          "indexed": true,
          "internalType": "address",
          "name": "operator",
          "type": "address"
        },
        {
          "indexed": false,
          "internalType": "bool",
          "name": "approved",
          "type": "bool"
        }
      ],
      "name": "ApprovalForAll",
      "type": "event"
    },
    {
      "anonymous": false,
      "inputs": [
        {
          "indexed": true,
          "internalType": "address",
          "name": "from",
          "type": "address"
        },
        {
          "indexed": true,
          "internalType": "address",
          "name": "to",
          "type": "address"
        },
        {
          "indexed": true,
          "internalType": "uint256",
          "name": "tokenId",
          "type": "uint256"
        }
      ],
      "name": "Transfer",
      "type": "event"
    },
    {
      "inputs": [
        {
          "internalType": "address",
          "name": "to",
          "type": "address"
        },
        {
          "internalType": "uint256",
          "name": "tokenId",
          "type": "uint256"
        }
      ],
      "name": "approve",
      "outputs": [],
      "stateMutability": "nonpayable",
      "type": "function"
    },
    {
      "inputs": [
        {
          "internalType": "address",
          "name": "owner",
          "type": "address"
        }
      ],
      "name": "balanceOf",
      "outputs": [
        {
          "internalType": "uint256",
          "name": "",
          "type": "uint256"
        }
      ],
      "stateMutability": "view",
      "type": "function"
    },
    {
      "inputs": [
        {
          "internalType": "uint256",
          "name": "tokenId",
          "type": "uint256"
        }
      ],
      "name": "getApproved",
      "outputs": [
        {
          "internalType": "address",
          "name": "",
          "type": "address"
        }
      ],
      "stateMutability": "view",
      "type": "function"
    },
    {
      "inputs": [
        {
          "internalType": "address",
          "name": "owner",
          "type": "address"
        },
        {
          "internalType": "address",
          "name": "operator",
          "type": "address"
        }
      ],
      "name": "isApprovedForAll",
      "outputs": [
        {
          "internalType": "bool",
          "name": "",
          "type": "bool"
        }
      ],
      "stateMutability": "view",
      "type": "function"
    },
    {
      "inputs": [],
      "name": "makeACoolNFT",
      "outputs": [],
      "stateMutability": "nonpayable",
      "type": "function"
    },
    {
      "inputs": [],
      "name": "name",
      "outputs": [
        {
          "internalType": "string",
          "name": "",
          "type": "string"
        }
      ],
      "stateMutability": "view",
      "type": "function"
    },
    {
      "inputs": [
        {
          "internalType": "uint256",
          "name": "tokenId",
          "type": "uint256"
        }
      ],
      "name": "ownerOf",
      "outputs": [
        {
          "internalType": "address",
          "name": "",
          "type": "address"
        }
      ],
      "stateMutability": "view",
      "type": "function"
    },
    {
      "inputs": [
        {
          "internalType": "uint256",
          "name": "tokenId",
          "type": "uint256"
        }
      ],
      "name": "pickRandomFirstWord",
      "outputs": [
        {
          "internalType": "string",
          "name": "",
          "type": "string"
        }
      ],
      "stateMutability": "view",
      "type": "function"
    },
    {
      "inputs": [
        {
          "internalType": "uint256",
          "name": "tokenId",
          "type": "uint256"
        }
      ],
      "name": "pickRandomSecondWord",
      "outputs": [
        {
          "internalType": "string",
          "name": "",
          "type": "string"
        }
      ],
      "stateMutability": "view",
      "type": "function"
    },
    {
      "inputs": [
        {
          "internalType": "uint256",
          "name": "tokenId",
          "type": "uint256"
        }
      ],
      "name": "pickRandomThirdWord",
      "outputs": [
        {
          "internalType": "string",
          "name": "",
          "type": "string"
        }
      ],
      "stateMutability": "view",
      "type": "function"
    },
    {
      "inputs": [
        {
          "internalType": "address",
          "name": "from",
          "type": "address"
        },
        {
          "internalType": "address",
          "name": "to",
          "type": "address"
        },
        {
          "internalType": "uint256",
          "name": "tokenId",
          "type": "uint256"
        }
      ],
      "name": "safeTransferFrom",
      "outputs": [],
      "stateMutability": "nonpayable",
      "type": "function"
    },
    {
      "inputs": [
        {
          "internalType": "address",
          "name": "from",
          "type": "address"
        },
        {
          "internalType": "address",
          "name": "to",
          "type": "address"
        },
        {
          "internalType": "uint256",
          "name": "tokenId",
          "type": "uint256"
        },
        {
          "internalType": "bytes",
          "name": "_data",
          "type": "bytes"
        }
      ],
      "name": "safeTransferFrom",
      "outputs": [],
      "stateMutability": "nonpayable",
      "type": "function"
    },
    {
      "inputs": [
        {
          "internalType": "address",
          "name": "operator",
          "type": "address"
        },
        {
          "internalType": "bool",
          "name": "approved",
          "type": "bool"
        }
      ],
      "name": "setApprovalForAll",
      "outputs": [],
      "stateMutability": "nonpayable",
      "type": "function"
    },
    {
      "inputs": [
        {
          "internalType": "bytes4",
          "name": "interfaceId",
          "type": "bytes4"
        }
      ],
      "name": "supportsInterface",
      "outputs": [
        {
          "internalType": "bool",
          "name": "",
          "type": "bool"
        }
      ],
      "stateMutability": "view",
      "type": "function"
    },
    {
      "inputs": [],
      "name": "symbol",
      "outputs": [
        {
          "internalType": "string",
          "name": "",
          "type": "string"
        }
      ],
      "stateMutability": "view",
      "type": "function"
    },
    {
      "inputs": [
        {
          "internalType": "uint256",
          "name": "tokenId",
          "type": "uint256"
        }
      ],
      "name": "tokenURI",
      "outputs": [
        {
          "internalType": "string",
          "name": "",
          "type": "string"
        }
      ],
      "stateMutability": "view",
      "type": "function"
    },
    {
      "inputs": [
        {
          "internalType": "address",
          "name": "from",
          "type": "address"
        },
        {
          "internalType": "address",
          "name": "to",
          "type": "address"
        },
        {
          "internalType": "uint256",
          "name": "tokenId",
          "type": "uint256"
        }
      ],
      "name": "transferFrom",
      "outputs": [],
      "stateMutability": "nonpayable",
      "type": "function"
    }
  ],
  "bytecode": "0x60806040526040518061016001604052806101308152602001620049a96101309139600890805190602001906200003892919062000cba565b50604051806101e001604052806040518060400160405280600981526020017f507265736964656e74000000000000000000000000000000000000000000000081525081526020016040518060400160405280600881526020017f476f7665726e6f7200000000000000000000000000000000000000000000000081525081526020016040518060400160405280600581526020017f4d61796f7200000000000000000000000000000000000000000000000000000081525081526020016040518060400160405280600481526020017f4b696e670000000000000000000000000000000000000000000000000000000081525081526020016040518060400160405280600881526020017f43686169726d616e00000000000000000000000000000000000000000000000081525081526020016040518060400160405280600781526020017f47656e6572616c0000000000000000000000000000000000000000000000000081525081526020016040518060400160405280600a81526020017f4c69657574656e616e740000000000000000000000000000000000000000000081525081526020016040518060400160405280600781526020017f4f6666696365720000000000000000000000000000000000000000000000000081525081526020016040518060400160405280600681526020017f446f63746f72000000000000000000000000000000000000000000000000000081525081526020016040518060400160405280600981526020017f50726f666573736f72000000000000000000000000000000000000000000000081525081526020016040518060400160405280600781526020017f41646d6972616c0000000000000000000000000000000000000000000000000081525081526020016040518060400160405280600881526020017f4469726563746f7200000000000000000000000000000000000000000000000081525081526020016040518060400160405280600881526020017f43617264696e616c00000000000000000000000000000000000000000000000081525081526020016040518060400160405280600581526020017f4d7566746900000000000000000000000000000000000000000000000000000081525081526020016040518060400160405280600681526020017f536865696b680000000000000000000000000000000000000000000000000000815250815250600990600f620003ca92919062000d4b565b50604051806101e001604052806040518060400160405280600481526020017f456c6f6e0000000000000000000000000000000000000000000000000000000081525081526020016040518060400160405280600481526020017f42696c6c0000000000000000000000000000000000000000000000000000000081525081526020016040518060400160405280600681526020017f56697267696c000000000000000000000000000000000000000000000000000081525081526020016040518060400160405280600581526020017f4b616e796500000000000000000000000000000000000000000000000000000081525081526020016040518060400160405280600481526020017f4d61726b0000000000000000000000000000000000000000000000000000000081525081526020016040518060400160405280600481526020017f4a6566660000000000000000000000000000000000000000000000000000000081525081526020016040518060400160405280600581526020017f537465766500000000000000000000000000000000000000000000000000000081525081526020016040518060400160405280600781526020017f4368616d6174680000000000000000000000000000000000000000000000000081525081526020016040518060400160405280600981526020017f437269737469616e6f000000000000000000000000000000000000000000000081525081526020016040518060400160405280600581526020017f4c6577697300000000000000000000000000000000000000000000000000000081525081526020016040518060400160405280600381526020017f4a6179000000000000000000000000000000000000000000000000000000000081525081526020016040518060400160405280600881526020017f5068617272656c6c00000000000000000000000000000000000000000000000081525081526020016040518060400160405280600481526020017f4a61636b0000000000000000000000000000000000000000000000000000000081525081526020016040518060400160405280600381526020017f53616d000000000000000000000000000000000000000000000000000000000081525081526020016040518060400160405280600381526020017f5261790000000000000000000000000000000000000000000000000000000000815250815250600a90600f6200075c92919062000d4b565b50604051806101e001604052806040518060400160405280600681526020017f546f6d61746f000000000000000000000000000000000000000000000000000081525081526020016040518060400160405280600681526020017f4f72616e6765000000000000000000000000000000000000000000000000000081525081526020016040518060400160405280600681526020017f42616e616e61000000000000000000000000000000000000000000000000000081525081526020016040518060400160405280600981526020017f537461776265727279000000000000000000000000000000000000000000000081525081526020016040518060400160405280600581526020017f477261706500000000000000000000000000000000000000000000000000000081525081526020016040518060400160405280600a81526020017f477261706566727569740000000000000000000000000000000000000000000081525081526020016040518060400160405280600581526020017f4170706c6500000000000000000000000000000000000000000000000000000081525081526020016040518060400160405280600481526020017f506561720000000000000000000000000000000000000000000000000000000081525081526020016040518060400160405280600781526020017f41707269636f740000000000000000000000000000000000000000000000000081525081526020016040518060400160405280600681526020017f436865727279000000000000000000000000000000000000000000000000000081525081526020016040518060400160405280600581526020017f477561766100000000000000000000000000000000000000000000000000000081525081526020016040518060400160405280600581526020017f4c656d6f6e00000000000000000000000000000000000000000000000000000081525081526020016040518060400160405280600981526020017f4372616e6265727279000000000000000000000000000000000000000000000081525081526020016040518060400160405280600681526020017f506170617961000000000000000000000000000000000000000000000000000081525081526020016040518060400160405280600481526020017f4461746500000000000000000000000000000000000000000000000000000000815250815250600b90600f62000aee92919062000d4b565b5034801562000afc57600080fd5b506040518060400160405280600781526020017f436f6f6c4e4654000000000000000000000000000000000000000000000000008152506040518060400160405280600481526020017f434e465400000000000000000000000000000000000000000000000000000000815250816000908051906020019062000b8192919062000cba565b50806001908051906020019062000b9a92919062000cba565b50505062000be86040518060400160405280601e81526020017f54686973206973206d79204e465420636f6e74726163742e2057686f6121000081525062000bee60201b620010a41760201c565b62000f6c565b62000c8e8160405160240162000c05919062000e80565b6040516020818303038152906040527f41304fac000000000000000000000000000000000000000000000000000000007bffffffffffffffffffffffffffffffffffffffffffffffffffffffff19166020820180517bffffffffffffffffffffffffffffffffffffffffffffffffffffffff838183161783525050505062000c9160201b60201c565b50565b60008151905060006a636f6e736f6c652e6c6f679050602083016000808483855afa5050505050565b82805462000cc89062000ef6565b90600052602060002090601f01602090048101928262000cec576000855562000d38565b82601f1062000d0757805160ff191683800117855562000d38565b8280016001018555821562000d38579182015b8281111562000d3757825182559160200191906001019062000d1a565b5b50905062000d47919062000db2565b5090565b82805482825590600052602060002090810192821562000d9f579160200282015b8281111562000d9e57825182908051906020019062000d8d92919062000cba565b509160200191906001019062000d6c565b5b50905062000dae919062000dd1565b5090565b5b8082111562000dcd57600081600090555060010162000db3565b5090565b5b8082111562000df5576000818162000deb919062000df9565b5060010162000dd2565b5090565b50805462000e079062000ef6565b6000825580601f1062000e1b575062000e3c565b601f01602090049060005260206000209081019062000e3b919062000db2565b5b50565b600062000e4c8262000ea4565b62000e58818562000eaf565b935062000e6a81856020860162000ec0565b62000e758162000f5b565b840191505092915050565b6000602082019050818103600083015262000e9c818462000e3f565b905092915050565b600081519050919050565b600082825260208201905092915050565b60005b8381101562000ee057808201518184015260208101905062000ec3565b8381111562000ef0576000848401525b50505050565b6000600282049050600182168062000f0f57607f821691505b6020821081141562000f265762000f2562000f2c565b5b50919050565b7f4e487b7100000000000000000000000000000000000000000000000000000000600052602260045260246000fd5b6000601f19601f8301169050919050565b613a2d8062000f7c6000396000f3fe608060405234801561001057600080fd5b506004361061010b5760003560e01c80636352211e116100a2578063b187301f11610071578063b187301f146102b6578063b88d4fde146102e6578063c575757a14610302578063c87b56dd14610332578063e985e9c5146103625761010b565b80636352211e1461021c57806370a082311461024c57806395d89b411461027c578063a22cb4651461029a5761010b565b806323b872dd116100de57806323b872dd146101aa5780632c8b4a41146101c65780632de38d68146101d057806342842e0e146102005761010b565b806301ffc9a71461011057806306fdde0314610140578063081812fc1461015e578063095ea7b31461018e575b600080fd5b61012a600480360381019061012591906124d0565b610392565b6040516101379190612bf6565b60405180910390f35b610148610474565b6040516101559190612c11565b60405180910390f35b61017860048036038101906101739190612522565b610506565b6040516101859190612b8f565b60405180910390f35b6101a860048036038101906101a39190612494565b61058b565b005b6101c460048036038101906101bf919061238e565b6106a3565b005b6101ce610703565b005b6101ea60048036038101906101e59190612522565b6108d0565b6040516101f79190612c11565b60405180910390f35b61021a6004803603810190610215919061238e565b6109ee565b005b61023660048036038101906102319190612522565b610a0e565b6040516102439190612b8f565b60405180910390f35b61026660048036038101906102619190612329565b610ac0565b6040516102739190612e71565b60405180910390f35b610284610b78565b6040516102919190612c11565b60405180910390f35b6102b460048036038101906102af9190612458565b610c0a565b005b6102d060048036038101906102cb9190612522565b610c20565b6040516102dd9190612c11565b60405180910390f35b61030060048036038101906102fb91906123dd565b610d3e565b005b61031c60048036038101906103179190612522565b610da0565b6040516103299190612c11565b60405180910390f35b61034c60048036038101906103479190612522565b610ebe565b6040516103599190612c11565b60405180910390f35b61037c60048036038101906103779190612352565b611010565b6040516103899190612bf6565b60405180910390f35b60007f80ac58cd000000000000000000000000000000000000000000000000000000007bffffffffffffffffffffffffffffffffffffffffffffffffffffffff1916827bffffffffffffffffffffffffffffffffffffffffffffffffffffffff1916148061045d57507f5b5e139f000000000000000000000000000000000000000000000000000000007bffffffffffffffffffffffffffffffffffffffffffffffffffffffff1916827bffffffffffffffffffffffffffffffffffffffffffffffffffffffff1916145b8061046d575061046c8261113d565b5b9050919050565b60606000805461048390613105565b80601f01602080910402602001604051908101604052809291908181526020018280546104af90613105565b80156104fc5780601f106104d1576101008083540402835291602001916104fc565b820191906000526020600020905b8154815290600101906020018083116104df57829003601f168201915b5050505050905090565b6000610511826111a7565b610550576040517f08c379a000000000000000000000000000000000000000000000000000000000815260040161054790612df1565b60405180910390fd5b6004600083815260200190815260200160002060009054906101000a900473ffffffffffffffffffffffffffffffffffffffff169050919050565b600061059682610a0e565b90508073ffffffffffffffffffffffffffffffffffffffff168373ffffffffffffffffffffffffffffffffffffffff161415610607576040517f08c379a00000000000000000000000000000000000000000000000000000000081526004016105fe90612e31565b60405180910390fd5b8073ffffffffffffffffffffffffffffffffffffffff16610626611213565b73ffffffffffffffffffffffffffffffffffffffff16148061065557506106548161064f611213565b611010565b5b610694576040517f08c379a000000000000000000000000000000000000000000000000000000000815260040161068b90612d31565b60405180910390fd5b61069e838361121b565b505050565b6106b46106ae611213565b826112d4565b6106f3576040517f08c379a00000000000000000000000000000000000000000000000000000000081526004016106ea90612e51565b60405180910390fd5b6106fe8383836113b2565b505050565b600061070f6007611619565b9050600061071c826108d0565b9050600061072983610c20565b9050600061073684610da0565b9050600083838360405160200161074f93929190612a40565b60405160208183030381529060405290506000600882604051602001610776929190612a71565b604051602081830303815290604052905060006107bb8361079684611627565b6040516020016107a7929190612ac2565b604051602081830303815290604052611627565b90506000816040516020016107d09190612b6d565b604051602081830303815290604052905061081f6040518060400160405280601581526020017f0a2d2d2d2d2d2d2d2d2d2d2d2d2d2d2d2d2d2d2d2d00000000000000000000008152506110a4565b610847816040516020016108339190612aa0565b6040516020818303038152906040526110a4565b6108856040518060400160405280601581526020017f2d2d2d2d2d2d2d2d2d2d2d2d2d2d2d2d2d2d2d2d0a00000000000000000000008152506110a4565b61088f33896117e5565b6108998882611803565b6108a36007611877565b6108c660405180606001604052806025815260200161399360259139893361188d565b5050505050505050565b606060006109046108e08461192c565b6040516020016108f09190612b4b565b604051602081830303815290604052611ad9565b90506009805490508161091791906131b1565b905060098181548110610953577f4e487b7100000000000000000000000000000000000000000000000000000000600052603260045260246000fd5b90600052602060002001805461096890613105565b80601f016020809104026020016040519081016040528092919081815260200182805461099490613105565b80156109e15780601f106109b6576101008083540402835291602001916109e1565b820191906000526020600020905b8154815290600101906020018083116109c457829003601f168201915b5050505050915050919050565b610a0983838360405180602001604052806000815250610d3e565b505050565b6000806002600084815260200190815260200160002060009054906101000a900473ffffffffffffffffffffffffffffffffffffffff169050600073ffffffffffffffffffffffffffffffffffffffff168173ffffffffffffffffffffffffffffffffffffffff161415610ab7576040517f08c379a0000000000000000000000000000000000000000000000000000000008152600401610aae90612d71565b60405180910390fd5b80915050919050565b60008073ffffffffffffffffffffffffffffffffffffffff168273ffffffffffffffffffffffffffffffffffffffff161415610b31576040517f08c379a0000000000000000000000000000000000000000000000000000000008152600401610b2890612d51565b60405180910390fd5b600360008373ffffffffffffffffffffffffffffffffffffffff1673ffffffffffffffffffffffffffffffffffffffff168152602001908152602001600020549050919050565b606060018054610b8790613105565b80601f0160208091040260200160405190810160405280929190818152602001828054610bb390613105565b8015610c005780601f10610bd557610100808354040283529160200191610c00565b820191906000526020600020905b815481529060010190602001808311610be357829003601f168201915b5050505050905090565b610c1c610c15611213565b8383611b0c565b5050565b60606000610c54610c308461192c565b604051602001610c409190612b29565b604051602081830303815290604052611ad9565b905060098054905081610c6791906131b1565b9050600a8181548110610ca3577f4e487b7100000000000000000000000000000000000000000000000000000000600052603260045260246000fd5b906000526020600020018054610cb890613105565b80601f0160208091040260200160405190810160405280929190818152602001828054610ce490613105565b8015610d315780601f10610d0657610100808354040283529160200191610d31565b820191906000526020600020905b815481529060010190602001808311610d1457829003601f168201915b5050505050915050919050565b610d4f610d49611213565b836112d4565b610d8e576040517f08c379a0000000000000000000000000000000000000000000000000000000008152600401610d8590612e51565b60405180910390fd5b610d9a84848484611c79565b50505050565b60606000610dd4610db08461192c565b604051602001610dc09190612b07565b604051602081830303815290604052611ad9565b905060098054905081610de791906131b1565b9050600b8181548110610e23577f4e487b7100000000000000000000000000000000000000000000000000000000600052603260045260246000fd5b906000526020600020018054610e3890613105565b80601f0160208091040260200160405190810160405280929190818152602001828054610e6490613105565b8015610eb15780601f10610e8657610100808354040283529160200191610eb1565b820191906000526020600020905b815481529060010190602001808311610e9457829003601f168201915b5050505050915050919050565b6060610ec9826111a7565b610f08576040517f08c379a0000000000000000000000000000000000000000000000000000000008152600401610eff90612dd1565b60405180910390fd5b6000600660008481526020019081526020016000208054610f2890613105565b80601f0160208091040260200160405190810160405280929190818152602001828054610f5490613105565b8015610fa15780601f10610f7657610100808354040283529160200191610fa1565b820191906000526020600020905b815481529060010190602001808311610f8457829003601f168201915b505050505090506000610fb2611cd5565b9050600081511415610fc857819250505061100b565b600082511115610ffd578082604051602001610fe5929190612a1c565b6040516020818303038152906040529250505061100b565b61100684611cec565b925050505b919050565b6000600560008473ffffffffffffffffffffffffffffffffffffffff1673ffffffffffffffffffffffffffffffffffffffff16815260200190815260200160002060008373ffffffffffffffffffffffffffffffffffffffff1673ffffffffffffffffffffffffffffffffffffffff16815260200190815260200160002060009054906101000a900460ff16905092915050565b61113a816040516024016110b89190612c11565b6040516020818303038152906040527f41304fac000000000000000000000000000000000000000000000000000000007bffffffffffffffffffffffffffffffffffffffffffffffffffffffff19166020820180517bffffffffffffffffffffffffffffffffffffffffffffffffffffffff8381831617835250505050611d93565b50565b60007f01ffc9a7000000000000000000000000000000000000000000000000000000007bffffffffffffffffffffffffffffffffffffffffffffffffffffffff1916827bffffffffffffffffffffffffffffffffffffffffffffffffffffffff1916149050919050565b60008073ffffffffffffffffffffffffffffffffffffffff166002600084815260200190815260200160002060009054906101000a900473ffffffffffffffffffffffffffffffffffffffff1673ffffffffffffffffffffffffffffffffffffffff1614159050919050565b600033905090565b816004600083815260200190815260200160002060006101000a81548173ffffffffffffffffffffffffffffffffffffffff021916908373ffffffffffffffffffffffffffffffffffffffff160217905550808273ffffffffffffffffffffffffffffffffffffffff1661128e83610a0e565b73ffffffffffffffffffffffffffffffffffffffff167f8c5be1e5ebec7d5bd14f71427d1e84f3dd0314c0f7b2291e5b200ac8c7c3b92560405160405180910390a45050565b60006112df826111a7565b61131e576040517f08c379a000000000000000000000000000000000000000000000000000000000815260040161131590612d11565b60405180910390fd5b600061132983610a0e565b90508073ffffffffffffffffffffffffffffffffffffffff168473ffffffffffffffffffffffffffffffffffffffff16148061136b575061136a8185611010565b5b806113a957508373ffffffffffffffffffffffffffffffffffffffff1661139184610506565b73ffffffffffffffffffffffffffffffffffffffff16145b91505092915050565b8273ffffffffffffffffffffffffffffffffffffffff166113d282610a0e565b73ffffffffffffffffffffffffffffffffffffffff1614611428576040517f08c379a000000000000000000000000000000000000000000000000000000000815260040161141f90612c91565b60405180910390fd5b600073ffffffffffffffffffffffffffffffffffffffff168273ffffffffffffffffffffffffffffffffffffffff161415611498576040517f08c379a000000000000000000000000000000000000000000000000000000000815260040161148f90612cd1565b60405180910390fd5b6114a3838383611dbc565b6114ae60008261121b565b6001600360008573ffffffffffffffffffffffffffffffffffffffff1673ffffffffffffffffffffffffffffffffffffffff16815260200190815260200160002060008282546114fe919061301b565b925050819055506001600360008473ffffffffffffffffffffffffffffffffffffffff1673ffffffffffffffffffffffffffffffffffffffff16815260200190815260200160002060008282546115559190612f3a565b92505081905550816002600083815260200190815260200160002060006101000a81548173ffffffffffffffffffffffffffffffffffffffff021916908373ffffffffffffffffffffffffffffffffffffffff160217905550808273ffffffffffffffffffffffffffffffffffffffff168473ffffffffffffffffffffffffffffffffffffffff167fddf252ad1be2c89b69c2b068fc378daa952ba7f163c4a11628f55a4df523b3ef60405160405180910390a4611614838383611dc1565b505050565b600081600001549050919050565b6060600082519050600081141561165057604051806020016040528060008152509150506117e0565b600060036002836116619190612f3a565b61166b9190612f90565b60046116779190612fc1565b905060006020826116889190612f3a565b67ffffffffffffffff8111156116c7577f4e487b7100000000000000000000000000000000000000000000000000000000600052604160045260246000fd5b6040519080825280601f01601f1916602001820160405280156116f95781602001600182028036833780820191505090505b50905060006040518060600160405280604081526020016139b8604091399050600181016020830160005b8681101561179d5760038101905062ffffff818a015116603f8160121c168401518060081b905060ff603f83600c1c1686015116810190508060081b905060ff603f8360061c1686015116810190508060081b905060ff603f831686015116810190508060e01b90508084526004840193505050611724565b5060038606600181146117b757600281146117c7576117d2565b613d3d60f01b60028303526117d2565b603d60f81b60018303525b508484525050819450505050505b919050565b6117ff828260405180602001604052806000815250611dc6565b5050565b61180c826111a7565b61184b576040517f08c379a000000000000000000000000000000000000000000000000000000000815260040161184290612d91565b60405180910390fd5b806006600084815260200190815260200160002090805190602001906118729291906121b5565b505050565b6001816000016000828254019250508190555050565b6119278383836040516024016118a593929190612c33565b6040516020818303038152906040527fe3849f79000000000000000000000000000000000000000000000000000000007bffffffffffffffffffffffffffffffffffffffffffffffffffffffff19166020820180517bffffffffffffffffffffffffffffffffffffffffffffffffffffffff8381831617835250505050611d93565b505050565b60606000821415611974576040518060400160405280600181526020017f30000000000000000000000000000000000000000000000000000000000000008152509050611ad4565b600082905060005b600082146119a657808061198f90613168565b915050600a8261199f9190612f90565b915061197c565b60008167ffffffffffffffff8111156119e8577f4e487b7100000000000000000000000000000000000000000000000000000000600052604160045260246000fd5b6040519080825280601f01601f191660200182016040528015611a1a5781602001600182028036833780820191505090505b5090505b60008514611acd57600182611a33919061301b565b9150600a85611a4291906131b1565b6030611a4e9190612f3a565b60f81b818381518110611a8a577f4e487b7100000000000000000000000000000000000000000000000000000000600052603260045260246000fd5b60200101907effffffffffffffffffffffffffffffffffffffffffffffffffffffffffffff1916908160001a905350600a85611ac69190612f90565b9450611a1e565b8093505050505b919050565b600081604051602001611aec9190612a05565b6040516020818303038152906040528051906020012060001c9050919050565b8173ffffffffffffffffffffffffffffffffffffffff168373ffffffffffffffffffffffffffffffffffffffff161415611b7b576040517f08c379a0000000000000000000000000000000000000000000000000000000008152600401611b7290612cf1565b60405180910390fd5b80600560008573ffffffffffffffffffffffffffffffffffffffff1673ffffffffffffffffffffffffffffffffffffffff16815260200190815260200160002060008473ffffffffffffffffffffffffffffffffffffffff1673ffffffffffffffffffffffffffffffffffffffff16815260200190815260200160002060006101000a81548160ff0219169083151502179055508173ffffffffffffffffffffffffffffffffffffffff168373ffffffffffffffffffffffffffffffffffffffff167f17307eab39ab6107e8899845ad3d59bd9653f200f220920489ca2b5937696c3183604051611c6c9190612bf6565b60405180910390a3505050565b611c848484846113b2565b611c9084848484611e21565b611ccf576040517f08c379a0000000000000000000000000000000000000000000000000000000008152600401611cc690612c71565b60405180910390fd5b50505050565b606060405180602001604052806000815250905090565b6060611cf7826111a7565b611d36576040517f08c379a0000000000000000000000000000000000000000000000000000000008152600401611d2d90612e11565b60405180910390fd5b6000611d40611cd5565b90506000815111611d605760405180602001604052806000815250611d8b565b80611d6a8461192c565b604051602001611d7b929190612a1c565b6040516020818303038152906040525b915050919050565b60008151905060006a636f6e736f6c652e6c6f679050602083016000808483855afa5050505050565b505050565b505050565b611dd08383611fb8565b611ddd6000848484611e21565b611e1c576040517f08c379a0000000000000000000000000000000000000000000000000000000008152600401611e1390612c71565b60405180910390fd5b505050565b6000611e428473ffffffffffffffffffffffffffffffffffffffff16612192565b15611fab578373ffffffffffffffffffffffffffffffffffffffff1663150b7a02611e6b611213565b8786866040518563ffffffff1660e01b8152600401611e8d9493929190612baa565b602060405180830381600087803b158015611ea757600080fd5b505af1925050508015611ed857506040513d601f19601f82011682018060405250810190611ed591906124f9565b60015b611f5b573d8060008114611f08576040519150601f19603f3d011682016040523d82523d6000602084013e611f0d565b606091505b50600081511415611f53576040517f08c379a0000000000000000000000000000000000000000000000000000000008152600401611f4a90612c71565b60405180910390fd5b805181602001fd5b63150b7a0260e01b7bffffffffffffffffffffffffffffffffffffffffffffffffffffffff1916817bffffffffffffffffffffffffffffffffffffffffffffffffffffffff191614915050611fb0565b600190505b949350505050565b600073ffffffffffffffffffffffffffffffffffffffff168273ffffffffffffffffffffffffffffffffffffffff161415612028576040517f08c379a000000000000000000000000000000000000000000000000000000000815260040161201f90612db1565b60405180910390fd5b612031816111a7565b15612071576040517f08c379a000000000000000000000000000000000000000000000000000000000815260040161206890612cb1565b60405180910390fd5b61207d60008383611dbc565b6001600360008473ffffffffffffffffffffffffffffffffffffffff1673ffffffffffffffffffffffffffffffffffffffff16815260200190815260200160002060008282546120cd9190612f3a565b92505081905550816002600083815260200190815260200160002060006101000a81548173ffffffffffffffffffffffffffffffffffffffff021916908373ffffffffffffffffffffffffffffffffffffffff160217905550808273ffffffffffffffffffffffffffffffffffffffff16600073ffffffffffffffffffffffffffffffffffffffff167fddf252ad1be2c89b69c2b068fc378daa952ba7f163c4a11628f55a4df523b3ef60405160405180910390a461218e60008383611dc1565b5050565b6000808273ffffffffffffffffffffffffffffffffffffffff163b119050919050565b8280546121c190613105565b90600052602060002090601f0160209004810192826121e3576000855561222a565b82601f106121fc57805160ff191683800117855561222a565b8280016001018555821561222a579182015b8281111561222957825182559160200191906001019061220e565b5b509050612237919061223b565b5090565b5b8082111561225457600081600090555060010161223c565b5090565b600061226b61226684612eb1565b612e8c565b90508281526020810184848401111561228357600080fd5b61228e8482856130c3565b509392505050565b6000813590506122a581613936565b92915050565b6000813590506122ba8161394d565b92915050565b6000813590506122cf81613964565b92915050565b6000815190506122e481613964565b92915050565b600082601f8301126122fb57600080fd5b813561230b848260208601612258565b91505092915050565b6000813590506123238161397b565b92915050565b60006020828403121561233b57600080fd5b600061234984828501612296565b91505092915050565b6000806040838503121561236557600080fd5b600061237385828601612296565b925050602061238485828601612296565b9150509250929050565b6000806000606084860312156123a357600080fd5b60006123b186828701612296565b93505060206123c286828701612296565b92505060406123d386828701612314565b9150509250925092565b600080600080608085870312156123f357600080fd5b600061240187828801612296565b945050602061241287828801612296565b935050604061242387828801612314565b925050606085013567ffffffffffffffff81111561244057600080fd5b61244c878288016122ea565b91505092959194509250565b6000806040838503121561246b57600080fd5b600061247985828601612296565b925050602061248a858286016122ab565b9150509250929050565b600080604083850312156124a757600080fd5b60006124b585828601612296565b92505060206124c685828601612314565b9150509250929050565b6000602082840312156124e257600080fd5b60006124f0848285016122c0565b91505092915050565b60006020828403121561250b57600080fd5b6000612519848285016122d5565b91505092915050565b60006020828403121561253457600080fd5b600061254284828501612314565b91505092915050565b6125548161304f565b82525050565b61256381613061565b82525050565b600061257482612ef7565b61257e8185612f0d565b935061258e8185602086016130d2565b6125978161329e565b840191505092915050565b60006125ad82612f02565b6125b78185612f1e565b93506125c78185602086016130d2565b6125d08161329e565b840191505092915050565b60006125e682612f02565b6125f08185612f2f565b93506126008185602086016130d2565b80840191505092915050565b6000815461261981613105565b6126238186612f2f565b9450600182166000811461263e576001811461264f57612682565b60ff19831686528186019350612682565b61265885612ee2565b60005b8381101561267a5781548189015260018201915060208101905061265b565b838801955050505b50505092915050565b6000612698602583612f2f565b91506126a3826132af565b602582019050919050565b60006126bb600983612f2f565b91506126c6826132fe565b600982019050919050565b60006126de603283612f1e565b91506126e982613327565b604082019050919050565b6000612701602583612f1e565b915061270c82613376565b604082019050919050565b6000612724601c83612f1e565b915061272f826133c5565b602082019050919050565b6000612747600a83612f2f565b9150612752826133ee565b600a82019050919050565b600061276a602483612f1e565b915061277582613417565b604082019050919050565b600061278d601983612f1e565b915061279882613466565b602082019050919050565b60006127b0606383612f2f565b91506127bb8261348f565b606382019050919050565b60006127d3600b83612f2f565b91506127de8261352a565b600b82019050919050565b60006127f6602c83612f1e565b915061280182613553565b604082019050919050565b6000612819600d83612f2f565b9150612824826135a2565b600d82019050919050565b600061283c603883612f1e565b9150612847826135cb565b604082019050919050565b600061285f602a83612f1e565b915061286a8261361a565b604082019050919050565b6000612882602983612f1e565b915061288d82613669565b604082019050919050565b60006128a5602e83612f1e565b91506128b0826136b8565b604082019050919050565b60006128c8600283612f2f565b91506128d382613707565b600282019050919050565b60006128eb602083612f1e565b91506128f682613730565b602082019050919050565b600061290e603183612f1e565b915061291982613759565b604082019050919050565b6000612931602c83612f1e565b915061293c826137a8565b604082019050919050565b6000612954602f83612f1e565b915061295f826137f7565b604082019050919050565b6000612977602183612f1e565b915061298282613846565b604082019050919050565b600061299a600a83612f2f565b91506129a582613895565b600a82019050919050565b60006129bd601d83612f2f565b91506129c8826138be565b601d82019050919050565b60006129e0603183612f1e565b91506129eb826138e7565b604082019050919050565b6129ff816130b9565b82525050565b6000612a1182846125db565b915081905092915050565b6000612a2882856125db565b9150612a3482846125db565b91508190509392505050565b6000612a4c82866125db565b9150612a5882856125db565b9150612a6482846125db565b9150819050949350505050565b6000612a7d828561260c565b9150612a8982846125db565b9150612a948261280c565b91508190509392505050565b6000612aab8261268b565b9150612ab782846125db565b915081905092915050565b6000612acd826126ae565b9150612ad982856125db565b9150612ae4826127a3565b9150612af082846125db565b9150612afb826128bb565b91508190509392505050565b6000612b128261273a565b9150612b1e82846125db565b915081905092915050565b6000612b34826127c6565b9150612b4082846125db565b915081905092915050565b6000612b568261298d565b9150612b6282846125db565b915081905092915050565b6000612b78826129b0565b9150612b8482846125db565b915081905092915050565b6000602082019050612ba4600083018461254b565b92915050565b6000608082019050612bbf600083018761254b565b612bcc602083018661254b565b612bd960408301856129f6565b8181036060830152612beb8184612569565b905095945050505050565b6000602082019050612c0b600083018461255a565b92915050565b60006020820190508181036000830152612c2b81846125a2565b905092915050565b60006060820190508181036000830152612c4d81866125a2565b9050612c5c60208301856129f6565b612c69604083018461254b565b949350505050565b60006020820190508181036000830152612c8a816126d1565b9050919050565b60006020820190508181036000830152612caa816126f4565b9050919050565b60006020820190508181036000830152612cca81612717565b9050919050565b60006020820190508181036000830152612cea8161275d565b9050919050565b60006020820190508181036000830152612d0a81612780565b9050919050565b60006020820190508181036000830152612d2a816127e9565b9050919050565b60006020820190508181036000830152612d4a8161282f565b9050919050565b60006020820190508181036000830152612d6a81612852565b9050919050565b60006020820190508181036000830152612d8a81612875565b9050919050565b60006020820190508181036000830152612daa81612898565b9050919050565b60006020820190508181036000830152612dca816128de565b9050919050565b60006020820190508181036000830152612dea81612901565b9050919050565b60006020820190508181036000830152612e0a81612924565b9050919050565b60006020820190508181036000830152612e2a81612947565b9050919050565b60006020820190508181036000830152612e4a8161296a565b9050919050565b60006020820190508181036000830152612e6a816129d3565b9050919050565b6000602082019050612e8660008301846129f6565b92915050565b6000612e96612ea7565b9050612ea28282613137565b919050565b6000604051905090565b600067ffffffffffffffff821115612ecc57612ecb61326f565b5b612ed58261329e565b9050602081019050919050565b60008190508160005260206000209050919050565b600081519050919050565b600081519050919050565b600082825260208201905092915050565b600082825260208201905092915050565b600081905092915050565b6000612f45826130b9565b9150612f50836130b9565b9250827fffffffffffffffffffffffffffffffffffffffffffffffffffffffffffffffff03821115612f8557612f846131e2565b5b828201905092915050565b6000612f9b826130b9565b9150612fa6836130b9565b925082612fb657612fb5613211565b5b828204905092915050565b6000612fcc826130b9565b9150612fd7836130b9565b9250817fffffffffffffffffffffffffffffffffffffffffffffffffffffffffffffffff04831182151516156130105761300f6131e2565b5b828202905092915050565b6000613026826130b9565b9150613031836130b9565b925082821015613044576130436131e2565b5b828203905092915050565b600061305a82613099565b9050919050565b60008115159050919050565b60007fffffffff0000000000000000000000000000000000000000000000000000000082169050919050565b600073ffffffffffffffffffffffffffffffffffffffff82169050919050565b6000819050919050565b82818337600083830152505050565b60005b838110156130f05780820151818401526020810190506130d5565b838111156130ff576000848401525b50505050565b6000600282049050600182168061311d57607f821691505b6020821081141561313157613130613240565b5b50919050565b6131408261329e565b810181811067ffffffffffffffff8211171561315f5761315e61326f565b5b80604052505050565b6000613173826130b9565b91507fffffffffffffffffffffffffffffffffffffffffffffffffffffffffffffffff8214156131a6576131a56131e2565b5b600182019050919050565b60006131bc826130b9565b91506131c7836130b9565b9250826131d7576131d6613211565b5b828206905092915050565b7f4e487b7100000000000000000000000000000000000000000000000000000000600052601160045260246000fd5b7f4e487b7100000000000000000000000000000000000000000000000000000000600052601260045260246000fd5b7f4e487b7100000000000000000000000000000000000000000000000000000000600052602260045260246000fd5b7f4e487b7100000000000000000000000000000000000000000000000000000000600052604160045260246000fd5b6000601f19601f8301169050919050565b7f68747470733a2f2f6e6674707265766965772e30786465762e636f6465732f3f60008201527f636f64653d000000000000000000000000000000000000000000000000000000602082015250565b7f7b226e616d65223a220000000000000000000000000000000000000000000000600082015250565b7f4552433732313a207472616e7366657220746f206e6f6e20455243373231526560008201527f63656976657220696d706c656d656e7465720000000000000000000000000000602082015250565b7f4552433732313a207472616e736665722066726f6d20696e636f72726563742060008201527f6f776e6572000000000000000000000000000000000000000000000000000000602082015250565b7f4552433732313a20746f6b656e20616c7265616479206d696e74656400000000600082015250565b7f54484952445f574f524400000000000000000000000000000000000000000000600082015250565b7f4552433732313a207472616e7366657220746f20746865207a65726f2061646460008201527f7265737300000000000000000000000000000000000000000000000000000000602082015250565b7f4552433732313a20617070726f766520746f2063616c6c657200000000000000600082015250565b7f222c20226465736372697074696f6e223a20224120686967686c79206163636c60008201527f61696d656420636f6c6c656374696f6e206f6620737175617265732e222c202260208201527f696d616765223a2022646174613a696d6167652f7376672b786d6c3b6261736560408201527f36342c0000000000000000000000000000000000000000000000000000000000606082015250565b7f5345434f4e445f574f5244000000000000000000000000000000000000000000600082015250565b7f4552433732313a206f70657261746f7220717565727920666f72206e6f6e657860008201527f697374656e7420746f6b656e0000000000000000000000000000000000000000602082015250565b7f3c2f746578743e3c2f7376673e00000000000000000000000000000000000000600082015250565b7f4552433732313a20617070726f76652063616c6c6572206973206e6f74206f7760008201527f6e6572206e6f7220617070726f76656420666f7220616c6c0000000000000000602082015250565b7f4552433732313a2062616c616e636520717565727920666f7220746865207a6560008201527f726f206164647265737300000000000000000000000000000000000000000000602082015250565b7f4552433732313a206f776e657220717565727920666f72206e6f6e657869737460008201527f656e7420746f6b656e0000000000000000000000000000000000000000000000602082015250565b7f45524337323155524953746f726167653a2055524920736574206f66206e6f6e60008201527f6578697374656e7420746f6b656e000000000000000000000000000000000000602082015250565b7f227d000000000000000000000000000000000000000000000000000000000000600082015250565b7f4552433732313a206d696e7420746f20746865207a65726f2061646472657373600082015250565b7f45524337323155524953746f726167653a2055524920717565727920666f722060008201527f6e6f6e6578697374656e7420746f6b656e000000000000000000000000000000602082015250565b7f4552433732313a20617070726f76656420717565727920666f72206e6f6e657860008201527f697374656e7420746f6b656e0000000000000000000000000000000000000000602082015250565b7f4552433732314d657461646174613a2055524920717565727920666f72206e6f60008201527f6e6578697374656e7420746f6b656e0000000000000000000000000000000000602082015250565b7f4552433732313a20617070726f76616c20746f2063757272656e74206f776e6560008201527f7200000000000000000000000000000000000000000000000000000000000000602082015250565b7f46495253545f574f524400000000000000000000000000000000000000000000600082015250565b7f646174613a6170706c69636174696f6e2f6a736f6e3b6261736536342c000000600082015250565b7f4552433732313a207472616e736665722063616c6c6572206973206e6f74206f60008201527f776e6572206e6f7220617070726f766564000000000000000000000000000000602082015250565b61393f8161304f565b811461394a57600080fd5b50565b61395681613061565b811461396157600080fd5b50565b61396d8161306d565b811461397857600080fd5b50565b613984816130b9565b811461398f57600080fd5b5056fe416e204e465420772f20494420257320686173206265656e206d696e74656420746f2025734142434445464748494a4b4c4d4e4f505152535455565758595a6162636465666768696a6b6c6d6e6f707172737475767778797a303132333435363738392b2fa2646970667358221220297cc833763eb92c4433da4396f410ba2ab1a9289b4f31d51238c31cefdfd53364736f6c634300080100333c73766720786d6c6e733d27687474703a2f2f7777772e77332e6f72672f323030302f73766727207072657365727665417370656374526174696f3d27784d696e594d696e206d656574272076696577426f783d273020302033353020333530273e3c7374796c653e2e62617365207b2066696c6c3a2079656c6c6f773b20666f6e742d66616d696c793a2073657269663b20666f6e742d73697a653a20313470783b207d3c2f7374796c653e3c726563742077696474683d273130302527206865696768743d2731303025272066696c6c3d27626c61636b27202f3e3c7465787420783d273530252720793d273530252720636c6173733d27626173652720646f6d696e616e742d626173656c696e653d276d6964646c652720746578742d616e63686f723d276d6964646c65273e",
  "linkReferences": {},
  "deployedLinkReferences": {}
}