{
  "_format": "hh-sol-artifact-1",
  "contractName": "MyCoolNFT",
  "sourceName": "contracts/MyCoolNFT.sol",
  "abi": [
    {
      "inputs": [],
      "stateMutability": "nonpayable",
      "type": "constructor"
    },
    {
      "anonymous": false,
      "inputs": [
        {
          "indexed": true,
          "internalType": "address",
          "name": "owner",
          "type": "address"
        },
        {
          "indexed": true,
          "internalType": "address",
          "name": "approved",
          "type": "address"
        },
        {
          "indexed": true,
          "internalType": "uint256",
          "name": "tokenId",
          "type": "uint256"
        }
      ],
      "name": "Approval",
      "type": "event"
    },
    {
      "anonymous": false,
      "inputs": [
        {
          "indexed": true,
          "internalType": "address",
          "name": "owner",
          "type": "address"
        },
        {
          "indexed": true,
          "internalType": "address",
          "name": "operator",
          "type": "address"
        },
        {
          "indexed": false,
          "internalType": "bool",
          "name": "approved",
          "type": "bool"
        }
      ],
      "name": "ApprovalForAll",
      "type": "event"
    },
    {
      "anonymous": false,
      "inputs": [
        {
          "indexed": false,
          "internalType": "address",
          "name": "sender",
          "type": "address"
        },
        {
          "indexed": false,
          "internalType": "uint256",
          "name": "tokenId",
          "type": "uint256"
        },
        {
          "indexed": false,
          "internalType": "uint256",
          "name": "totalNFTs",
          "type": "uint256"
        }
      ],
      "name": "NewCoolNFTMinted",
      "type": "event"
    },
    {
      "anonymous": false,
      "inputs": [
        {
          "indexed": true,
          "internalType": "address",
          "name": "from",
          "type": "address"
        },
        {
          "indexed": true,
          "internalType": "address",
          "name": "to",
          "type": "address"
        },
        {
          "indexed": true,
          "internalType": "uint256",
          "name": "tokenId",
          "type": "uint256"
        }
      ],
      "name": "Transfer",
      "type": "event"
    },
    {
      "inputs": [
        {
          "internalType": "address",
          "name": "to",
          "type": "address"
        },
        {
          "internalType": "uint256",
          "name": "tokenId",
          "type": "uint256"
        }
      ],
      "name": "approve",
      "outputs": [],
      "stateMutability": "nonpayable",
      "type": "function"
    },
    {
      "inputs": [
        {
          "internalType": "address",
          "name": "owner",
          "type": "address"
        }
      ],
      "name": "balanceOf",
      "outputs": [
        {
          "internalType": "uint256",
          "name": "",
          "type": "uint256"
        }
      ],
      "stateMutability": "view",
      "type": "function"
    },
    {
      "inputs": [
        {
          "internalType": "uint256",
          "name": "tokenId",
          "type": "uint256"
        }
      ],
      "name": "getApproved",
      "outputs": [
        {
          "internalType": "address",
          "name": "",
          "type": "address"
        }
      ],
      "stateMutability": "view",
      "type": "function"
    },
    {
      "inputs": [],
      "name": "getTotalNFTsMintedSoFar",
      "outputs": [
        {
          "internalType": "uint256",
          "name": "",
          "type": "uint256"
        }
      ],
      "stateMutability": "view",
      "type": "function"
    },
    {
      "inputs": [
        {
          "internalType": "address",
          "name": "owner",
          "type": "address"
        },
        {
          "internalType": "address",
          "name": "operator",
          "type": "address"
        }
      ],
      "name": "isApprovedForAll",
      "outputs": [
        {
          "internalType": "bool",
          "name": "",
          "type": "bool"
        }
      ],
      "stateMutability": "view",
      "type": "function"
    },
    {
      "inputs": [],
      "name": "makeACoolNFT",
      "outputs": [],
      "stateMutability": "nonpayable",
      "type": "function"
    },
    {
      "inputs": [],
      "name": "name",
      "outputs": [
        {
          "internalType": "string",
          "name": "",
          "type": "string"
        }
      ],
      "stateMutability": "view",
      "type": "function"
    },
    {
      "inputs": [
        {
          "internalType": "uint256",
          "name": "tokenId",
          "type": "uint256"
        }
      ],
      "name": "ownerOf",
      "outputs": [
        {
          "internalType": "address",
          "name": "",
          "type": "address"
        }
      ],
      "stateMutability": "view",
      "type": "function"
    },
    {
      "inputs": [
        {
          "internalType": "uint256",
          "name": "tokenId",
          "type": "uint256"
        }
      ],
      "name": "pickRandomColor",
      "outputs": [
        {
          "internalType": "string",
          "name": "",
          "type": "string"
        }
      ],
      "stateMutability": "view",
      "type": "function"
    },
    {
      "inputs": [
        {
          "internalType": "uint256",
          "name": "tokenId",
          "type": "uint256"
        }
      ],
      "name": "pickRandomFirstWord",
      "outputs": [
        {
          "internalType": "string",
          "name": "",
          "type": "string"
        }
      ],
      "stateMutability": "view",
      "type": "function"
    },
    {
      "inputs": [
        {
          "internalType": "uint256",
          "name": "tokenId",
          "type": "uint256"
        }
      ],
      "name": "pickRandomSecondWord",
      "outputs": [
        {
          "internalType": "string",
          "name": "",
          "type": "string"
        }
      ],
      "stateMutability": "view",
      "type": "function"
    },
    {
      "inputs": [
        {
          "internalType": "uint256",
          "name": "tokenId",
          "type": "uint256"
        }
      ],
      "name": "pickRandomThirdWord",
      "outputs": [
        {
          "internalType": "string",
          "name": "",
          "type": "string"
        }
      ],
      "stateMutability": "view",
      "type": "function"
    },
    {
      "inputs": [
        {
          "internalType": "address",
          "name": "from",
          "type": "address"
        },
        {
          "internalType": "address",
          "name": "to",
          "type": "address"
        },
        {
          "internalType": "uint256",
          "name": "tokenId",
          "type": "uint256"
        }
      ],
      "name": "safeTransferFrom",
      "outputs": [],
      "stateMutability": "nonpayable",
      "type": "function"
    },
    {
      "inputs": [
        {
          "internalType": "address",
          "name": "from",
          "type": "address"
        },
        {
          "internalType": "address",
          "name": "to",
          "type": "address"
        },
        {
          "internalType": "uint256",
          "name": "tokenId",
          "type": "uint256"
        },
        {
          "internalType": "bytes",
          "name": "_data",
          "type": "bytes"
        }
      ],
      "name": "safeTransferFrom",
      "outputs": [],
      "stateMutability": "nonpayable",
      "type": "function"
    },
    {
      "inputs": [
        {
          "internalType": "address",
          "name": "operator",
          "type": "address"
        },
        {
          "internalType": "bool",
          "name": "approved",
          "type": "bool"
        }
      ],
      "name": "setApprovalForAll",
      "outputs": [],
      "stateMutability": "nonpayable",
      "type": "function"
    },
    {
      "inputs": [
        {
          "internalType": "bytes4",
          "name": "interfaceId",
          "type": "bytes4"
        }
      ],
      "name": "supportsInterface",
      "outputs": [
        {
          "internalType": "bool",
          "name": "",
          "type": "bool"
        }
      ],
      "stateMutability": "view",
      "type": "function"
    },
    {
      "inputs": [],
      "name": "symbol",
      "outputs": [
        {
          "internalType": "string",
          "name": "",
          "type": "string"
        }
      ],
      "stateMutability": "view",
      "type": "function"
    },
    {
      "inputs": [
        {
          "internalType": "uint256",
          "name": "tokenId",
          "type": "uint256"
        }
      ],
      "name": "tokenURI",
      "outputs": [
        {
          "internalType": "string",
          "name": "",
          "type": "string"
        }
      ],
      "stateMutability": "view",
      "type": "function"
    },
    {
      "inputs": [
        {
          "internalType": "address",
          "name": "from",
          "type": "address"
        },
        {
          "internalType": "address",
          "name": "to",
          "type": "address"
        },
        {
          "internalType": "uint256",
          "name": "tokenId",
          "type": "uint256"
        }
      ],
      "name": "transferFrom",
      "outputs": [],
      "stateMutability": "nonpayable",
      "type": "function"
    }
  ],
  "bytecode": "0x6080604052603260085560006009556040518060a001604052806040518060400160405280600481526020017f626c75650000000000000000000000000000000000000000000000000000000081525081526020016040518060400160405280600581526020017f626c61636b00000000000000000000000000000000000000000000000000000081525081526020016040518060400160405280600581526020017f677265656e00000000000000000000000000000000000000000000000000000081525081526020016040518060400160405280600381526020017f726564000000000000000000000000000000000000000000000000000000000081525081526020016040518060400160405280600681526020017f707572706c650000000000000000000000000000000000000000000000000000815250815250600a9060056200015092919062000e36565b506040518060e0016040528060ac8152602001620050db60ac9139600b90805190602001906200018292919062000e9d565b506040518060800160405280605381526020016200518760539139600c9080519060200190620001b492919062000e9d565b50604051806101e001604052806040518060400160405280600981526020017f507265736964656e74000000000000000000000000000000000000000000000081525081526020016040518060400160405280600881526020017f476f7665726e6f7200000000000000000000000000000000000000000000000081525081526020016040518060400160405280600581526020017f4d61796f7200000000000000000000000000000000000000000000000000000081525081526020016040518060400160405280600481526020017f4b696e670000000000000000000000000000000000000000000000000000000081525081526020016040518060400160405280600881526020017f43686169726d616e00000000000000000000000000000000000000000000000081525081526020016040518060400160405280600781526020017f47656e6572616c0000000000000000000000000000000000000000000000000081525081526020016040518060400160405280600a81526020017f4c69657574656e616e740000000000000000000000000000000000000000000081525081526020016040518060400160405280600781526020017f4f6666696365720000000000000000000000000000000000000000000000000081525081526020016040518060400160405280600681526020017f446f63746f72000000000000000000000000000000000000000000000000000081525081526020016040518060400160405280600981526020017f50726f666573736f72000000000000000000000000000000000000000000000081525081526020016040518060400160405280600781526020017f41646d6972616c0000000000000000000000000000000000000000000000000081525081526020016040518060400160405280600881526020017f4469726563746f7200000000000000000000000000000000000000000000000081525081526020016040518060400160405280600881526020017f43617264696e616c00000000000000000000000000000000000000000000000081525081526020016040518060400160405280600581526020017f4d7566746900000000000000000000000000000000000000000000000000000081525081526020016040518060400160405280600681526020017f536865696b680000000000000000000000000000000000000000000000000000815250815250600d90600f6200054692919062000f2e565b50604051806101e001604052806040518060400160405280600481526020017f456c6f6e0000000000000000000000000000000000000000000000000000000081525081526020016040518060400160405280600481526020017f42696c6c0000000000000000000000000000000000000000000000000000000081525081526020016040518060400160405280600681526020017f56697267696c000000000000000000000000000000000000000000000000000081525081526020016040518060400160405280600581526020017f4b616e796500000000000000000000000000000000000000000000000000000081525081526020016040518060400160405280600481526020017f4d61726b0000000000000000000000000000000000000000000000000000000081525081526020016040518060400160405280600481526020017f4a6566660000000000000000000000000000000000000000000000000000000081525081526020016040518060400160405280600581526020017f537465766500000000000000000000000000000000000000000000000000000081525081526020016040518060400160405280600781526020017f4368616d6174680000000000000000000000000000000000000000000000000081525081526020016040518060400160405280600981526020017f437269737469616e6f000000000000000000000000000000000000000000000081525081526020016040518060400160405280600581526020017f4c6577697300000000000000000000000000000000000000000000000000000081525081526020016040518060400160405280600381526020017f4a6179000000000000000000000000000000000000000000000000000000000081525081526020016040518060400160405280600881526020017f5068617272656c6c00000000000000000000000000000000000000000000000081525081526020016040518060400160405280600481526020017f4a61636b0000000000000000000000000000000000000000000000000000000081525081526020016040518060400160405280600381526020017f53616d000000000000000000000000000000000000000000000000000000000081525081526020016040518060400160405280600381526020017f5261790000000000000000000000000000000000000000000000000000000000815250815250600e90600f620008d892919062000f2e565b50604051806101e001604052806040518060400160405280600681526020017f546f6d61746f000000000000000000000000000000000000000000000000000081525081526020016040518060400160405280600681526020017f4f72616e6765000000000000000000000000000000000000000000000000000081525081526020016040518060400160405280600681526020017f42616e616e61000000000000000000000000000000000000000000000000000081525081526020016040518060400160405280600981526020017f537461776265727279000000000000000000000000000000000000000000000081525081526020016040518060400160405280600581526020017f477261706500000000000000000000000000000000000000000000000000000081525081526020016040518060400160405280600a81526020017f477261706566727569740000000000000000000000000000000000000000000081525081526020016040518060400160405280600581526020017f4170706c6500000000000000000000000000000000000000000000000000000081525081526020016040518060400160405280600481526020017f506561720000000000000000000000000000000000000000000000000000000081525081526020016040518060400160405280600781526020017f41707269636f740000000000000000000000000000000000000000000000000081525081526020016040518060400160405280600681526020017f436865727279000000000000000000000000000000000000000000000000000081525081526020016040518060400160405280600581526020017f477561766100000000000000000000000000000000000000000000000000000081525081526020016040518060400160405280600581526020017f4c656d6f6e00000000000000000000000000000000000000000000000000000081525081526020016040518060400160405280600981526020017f4372616e6265727279000000000000000000000000000000000000000000000081525081526020016040518060400160405280600681526020017f506170617961000000000000000000000000000000000000000000000000000081525081526020016040518060400160405280600481526020017f4461746500000000000000000000000000000000000000000000000000000000815250815250600f90600f62000c6a92919062000f2e565b5034801562000c7857600080fd5b506040518060400160405280600781526020017f436f6f6c4e4654000000000000000000000000000000000000000000000000008152506040518060400160405280600481526020017f434e465400000000000000000000000000000000000000000000000000000000815250816000908051906020019062000cfd92919062000e9d565b50806001908051906020019062000d1692919062000e9d565b50505062000d646040518060400160405280601e81526020017f54686973206973206d79204e465420636f6e74726163742e2057686f6121000081525062000d6a60201b620013281760201c565b6200114f565b62000e0a8160405160240162000d81919062001063565b6040516020818303038152906040527f41304fac000000000000000000000000000000000000000000000000000000007bffffffffffffffffffffffffffffffffffffffffffffffffffffffff19166020820180517bffffffffffffffffffffffffffffffffffffffffffffffffffffffff838183161783525050505062000e0d60201b60201c565b50565b60008151905060006a636f6e736f6c652e6c6f679050602083016000808483855afa5050505050565b82805482825590600052602060002090810192821562000e8a579160200282015b8281111562000e8957825182908051906020019062000e7892919062000e9d565b509160200191906001019062000e57565b5b50905062000e99919062000f95565b5090565b82805462000eab90620010d9565b90600052602060002090601f01602090048101928262000ecf576000855562000f1b565b82601f1062000eea57805160ff191683800117855562000f1b565b8280016001018555821562000f1b579182015b8281111562000f1a57825182559160200191906001019062000efd565b5b50905062000f2a919062000fbd565b5090565b82805482825590600052602060002090810192821562000f82579160200282015b8281111562000f8157825182908051906020019062000f7092919062000e9d565b509160200191906001019062000f4f565b5b50905062000f91919062000f95565b5090565b5b8082111562000fb9576000818162000faf919062000fdc565b5060010162000f96565b5090565b5b8082111562000fd857600081600090555060010162000fbe565b5090565b50805462000fea90620010d9565b6000825580601f1062000ffe57506200101f565b601f0160209004906000526020600020908101906200101e919062000fbd565b5b50565b60006200102f8262001087565b6200103b818562001092565b93506200104d818560208601620010a3565b62001058816200113e565b840191505092915050565b600060208201905081810360008301526200107f818462001022565b905092915050565b600081519050919050565b600082825260208201905092915050565b60005b83811015620010c3578082015181840152602081019050620010a6565b83811115620010d3576000848401525b50505050565b60006002820490506001821680620010f257607f821691505b602082108114156200110957620011086200110f565b5b50919050565b7f4e487b7100000000000000000000000000000000000000000000000000000000600052602260045260246000fd5b6000601f19601f8301169050919050565b613f7c806200115f6000396000f3fe608060405234801561001057600080fd5b50600436106101215760003560e01c8063514dc8c6116100ad578063b187301f11610071578063b187301f1461031a578063b88d4fde1461034a578063c575757a14610366578063c87b56dd14610396578063e985e9c5146103c657610121565b8063514dc8c6146102505780636352211e1461028057806370a08231146102b057806395d89b41146102e0578063a22cb465146102fe57610121565b8063095ea7b3116100f4578063095ea7b3146101c257806323b872dd146101de5780632c8b4a41146101fa5780632de38d681461020457806342842e0e1461023457610121565b806301ffc9a714610126578063060475901461015657806306fdde0314610174578063081812fc14610192575b600080fd5b610140600480360381019061013b91906127f0565b6103f6565b60405161014d919061302b565b60405180910390f35b61015e6104d8565b60405161016b91906132f6565b60405180910390f35b61017c610523565b6040516101899190613046565b60405180910390f35b6101ac60048036038101906101a79190612842565b6105b5565b6040516101b99190612f8d565b60405180910390f35b6101dc60048036038101906101d791906127b4565b61063a565b005b6101f860048036038101906101f391906126ae565b610752565b005b6102026107b2565b005b61021e60048036038101906102199190612842565b610a36565b60405161022b9190613046565b60405180910390f35b61024e600480360381019061024991906126ae565b610b54565b005b61026a60048036038101906102659190612842565b610b74565b6040516102779190613046565b60405180910390f35b61029a60048036038101906102959190612842565b610c92565b6040516102a79190612f8d565b60405180910390f35b6102ca60048036038101906102c59190612649565b610d44565b6040516102d791906132f6565b60405180910390f35b6102e8610dfc565b6040516102f59190613046565b60405180910390f35b61031860048036038101906103139190612778565b610e8e565b005b610334600480360381019061032f9190612842565b610ea4565b6040516103419190613046565b60405180910390f35b610364600480360381019061035f91906126fd565b610fc2565b005b610380600480360381019061037b9190612842565b611024565b60405161038d9190613046565b60405180910390f35b6103b060048036038101906103ab9190612842565b611142565b6040516103bd9190613046565b60405180910390f35b6103e060048036038101906103db9190612672565b611294565b6040516103ed919061302b565b60405180910390f35b60007f80ac58cd000000000000000000000000000000000000000000000000000000007bffffffffffffffffffffffffffffffffffffffffffffffffffffffff1916827bffffffffffffffffffffffffffffffffffffffffffffffffffffffff191614806104c157507f5b5e139f000000000000000000000000000000000000000000000000000000007bffffffffffffffffffffffffffffffffffffffffffffffffffffffff1916827bffffffffffffffffffffffffffffffffffffffffffffffffffffffff1916145b806104d157506104d0826113c1565b5b9050919050565b600061051b6040518060400160405280601181526020017f2564206d696e74656420736f206661722e00000000000000000000000000000081525060095461142b565b600954905090565b6060600080546105329061358a565b80601f016020809104026020016040519081016040528092919081815260200182805461055e9061358a565b80156105ab5780601f10610580576101008083540402835291602001916105ab565b820191906000526020600020905b81548152906001019060200180831161058e57829003601f168201915b5050505050905090565b60006105c0826114c7565b6105ff576040517f08c379a00000000000000000000000000000000000000000000000000000000081526004016105f690613276565b60405180910390fd5b6004600083815260200190815260200160002060009054906101000a900473ffffffffffffffffffffffffffffffffffffffff169050919050565b600061064582610c92565b90508073ffffffffffffffffffffffffffffffffffffffff168373ffffffffffffffffffffffffffffffffffffffff1614156106b6576040517f08c379a00000000000000000000000000000000000000000000000000000000081526004016106ad906132b6565b60405180910390fd5b8073ffffffffffffffffffffffffffffffffffffffff166106d5611533565b73ffffffffffffffffffffffffffffffffffffffff1614806107045750610703816106fe611533565b611294565b5b610743576040517f08c379a000000000000000000000000000000000000000000000000000000000815260040161073a906131b6565b60405180910390fd5b61074d838361153b565b505050565b61076361075d611533565b826115f4565b6107a2576040517f08c379a0000000000000000000000000000000000000000000000000000000008152600401610799906132d6565b60405180910390fd5b6107ad8383836116d2565b505050565b60006107be6007611939565b90506008546107cd6007611939565b1061080d576040517f08c379a000000000000000000000000000000000000000000000000000000000815260040161080490613136565b60405180910390fd5b600061081882610a36565b9050600061082583610ea4565b9050600061083284611024565b9050600061083f85610b74565b9050600084848460405160200161085893929190612dec565b60405160208183030381529060405290506000600b83600c846040516020016108849493929190612e1d565b604051602081830303815290604052905060006108c9836108a484611947565b6040516020016108b5929190612ec0565b604051602081830303815290604052611947565b90506000816040516020016108de9190612f6b565b604051602081830303815290604052905061092d6040518060400160405280601581526020017f0a2d2d2d2d2d2d2d2d2d2d2d2d2d2d2d2d2d2d2d2d0000000000000000000000815250611328565b610955816040516020016109419190612e7c565b604051602081830303815290604052611328565b6109936040518060400160405280601581526020017f2d2d2d2d2d2d2d2d2d2d2d2d2d2d2d2d2d2d2d2d0a0000000000000000000000815250611328565b61099d338a611b05565b6109a78982611b23565b6109b16007611b97565b6109d4604051806060016040528060258152602001613ee2602591398a33611bad565b6001600960008282546109e791906133bf565b925050819055507f2eed0370a7d4839e154b968624387a00253fec4b1f02288f6492c9fff748390b338a600954604051610a2393929190612ff4565b60405180910390a1505050505050505050565b60606000610a6a610a4684611c4c565b604051602001610a569190612f49565b604051602081830303815290604052611df9565b9050600d8054905081610a7d9190613636565b9050600d8181548110610ab9577f4e487b7100000000000000000000000000000000000000000000000000000000600052603260045260246000fd5b906000526020600020018054610ace9061358a565b80601f0160208091040260200160405190810160405280929190818152602001828054610afa9061358a565b8015610b475780601f10610b1c57610100808354040283529160200191610b47565b820191906000526020600020905b815481529060010190602001808311610b2a57829003601f168201915b5050505050915050919050565b610b6f83838360405180602001604052806000815250610fc2565b505050565b60606000610ba8610b8484611c4c565b604051602001610b949190612e9e565b604051602081830303815290604052611df9565b9050600a8054905081610bbb9190613636565b9050600a8181548110610bf7577f4e487b7100000000000000000000000000000000000000000000000000000000600052603260045260246000fd5b906000526020600020018054610c0c9061358a565b80601f0160208091040260200160405190810160405280929190818152602001828054610c389061358a565b8015610c855780601f10610c5a57610100808354040283529160200191610c85565b820191906000526020600020905b815481529060010190602001808311610c6857829003601f168201915b5050505050915050919050565b6000806002600084815260200190815260200160002060009054906101000a900473ffffffffffffffffffffffffffffffffffffffff169050600073ffffffffffffffffffffffffffffffffffffffff168173ffffffffffffffffffffffffffffffffffffffff161415610d3b576040517f08c379a0000000000000000000000000000000000000000000000000000000008152600401610d32906131f6565b60405180910390fd5b80915050919050565b60008073ffffffffffffffffffffffffffffffffffffffff168273ffffffffffffffffffffffffffffffffffffffff161415610db5576040517f08c379a0000000000000000000000000000000000000000000000000000000008152600401610dac906131d6565b60405180910390fd5b600360008373ffffffffffffffffffffffffffffffffffffffff1673ffffffffffffffffffffffffffffffffffffffff168152602001908152602001600020549050919050565b606060018054610e0b9061358a565b80601f0160208091040260200160405190810160405280929190818152602001828054610e379061358a565b8015610e845780601f10610e5957610100808354040283529160200191610e84565b820191906000526020600020905b815481529060010190602001808311610e6757829003601f168201915b5050505050905090565b610ea0610e99611533565b8383611e2c565b5050565b60606000610ed8610eb484611c4c565b604051602001610ec49190612f27565b604051602081830303815290604052611df9565b9050600d8054905081610eeb9190613636565b9050600e8181548110610f27577f4e487b7100000000000000000000000000000000000000000000000000000000600052603260045260246000fd5b906000526020600020018054610f3c9061358a565b80601f0160208091040260200160405190810160405280929190818152602001828054610f689061358a565b8015610fb55780601f10610f8a57610100808354040283529160200191610fb5565b820191906000526020600020905b815481529060010190602001808311610f9857829003601f168201915b5050505050915050919050565b610fd3610fcd611533565b836115f4565b611012576040517f08c379a0000000000000000000000000000000000000000000000000000000008152600401611009906132d6565b60405180910390fd5b61101e84848484611f99565b50505050565b6060600061105861103484611c4c565b6040516020016110449190612f05565b604051602081830303815290604052611df9565b9050600d805490508161106b9190613636565b9050600f81815481106110a7577f4e487b7100000000000000000000000000000000000000000000000000000000600052603260045260246000fd5b9060005260206000200180546110bc9061358a565b80601f01602080910402602001604051908101604052809291908181526020018280546110e89061358a565b80156111355780601f1061110a57610100808354040283529160200191611135565b820191906000526020600020905b81548152906001019060200180831161111857829003601f168201915b5050505050915050919050565b606061114d826114c7565b61118c576040517f08c379a000000000000000000000000000000000000000000000000000000000815260040161118390613256565b60405180910390fd5b60006006600084815260200190815260200160002080546111ac9061358a565b80601f01602080910402602001604051908101604052809291908181526020018280546111d89061358a565b80156112255780601f106111fa57610100808354040283529160200191611225565b820191906000526020600020905b81548152906001019060200180831161120857829003601f168201915b505050505090506000611236611ff5565b905060008151141561124c57819250505061128f565b600082511115611281578082604051602001611269929190612dc8565b6040516020818303038152906040529250505061128f565b61128a8461200c565b925050505b919050565b6000600560008473ffffffffffffffffffffffffffffffffffffffff1673ffffffffffffffffffffffffffffffffffffffff16815260200190815260200160002060008373ffffffffffffffffffffffffffffffffffffffff1673ffffffffffffffffffffffffffffffffffffffff16815260200190815260200160002060009054906101000a900460ff16905092915050565b6113be8160405160240161133c9190613046565b6040516020818303038152906040527f41304fac000000000000000000000000000000000000000000000000000000007bffffffffffffffffffffffffffffffffffffffffffffffffffffffff19166020820180517bffffffffffffffffffffffffffffffffffffffffffffffffffffffff83818316178352505050506120b3565b50565b60007f01ffc9a7000000000000000000000000000000000000000000000000000000007bffffffffffffffffffffffffffffffffffffffffffffffffffffffff1916827bffffffffffffffffffffffffffffffffffffffffffffffffffffffff1916149050919050565b6114c38282604051602401611441929190613068565b6040516020818303038152906040527f9710a9d0000000000000000000000000000000000000000000000000000000007bffffffffffffffffffffffffffffffffffffffffffffffffffffffff19166020820180517bffffffffffffffffffffffffffffffffffffffffffffffffffffffff83818316178352505050506120b3565b5050565b60008073ffffffffffffffffffffffffffffffffffffffff166002600084815260200190815260200160002060009054906101000a900473ffffffffffffffffffffffffffffffffffffffff1673ffffffffffffffffffffffffffffffffffffffff1614159050919050565b600033905090565b816004600083815260200190815260200160002060006101000a81548173ffffffffffffffffffffffffffffffffffffffff021916908373ffffffffffffffffffffffffffffffffffffffff160217905550808273ffffffffffffffffffffffffffffffffffffffff166115ae83610c92565b73ffffffffffffffffffffffffffffffffffffffff167f8c5be1e5ebec7d5bd14f71427d1e84f3dd0314c0f7b2291e5b200ac8c7c3b92560405160405180910390a45050565b60006115ff826114c7565b61163e576040517f08c379a000000000000000000000000000000000000000000000000000000000815260040161163590613196565b60405180910390fd5b600061164983610c92565b90508073ffffffffffffffffffffffffffffffffffffffff168473ffffffffffffffffffffffffffffffffffffffff16148061168b575061168a8185611294565b5b806116c957508373ffffffffffffffffffffffffffffffffffffffff166116b1846105b5565b73ffffffffffffffffffffffffffffffffffffffff16145b91505092915050565b8273ffffffffffffffffffffffffffffffffffffffff166116f282610c92565b73ffffffffffffffffffffffffffffffffffffffff1614611748576040517f08c379a000000000000000000000000000000000000000000000000000000000815260040161173f906130f6565b60405180910390fd5b600073ffffffffffffffffffffffffffffffffffffffff168273ffffffffffffffffffffffffffffffffffffffff1614156117b8576040517f08c379a00000000000000000000000000000000000000000000000000000000081526004016117af90613156565b60405180910390fd5b6117c38383836120dc565b6117ce60008261153b565b6001600360008573ffffffffffffffffffffffffffffffffffffffff1673ffffffffffffffffffffffffffffffffffffffff168152602001908152602001600020600082825461181e91906134a0565b925050819055506001600360008473ffffffffffffffffffffffffffffffffffffffff1673ffffffffffffffffffffffffffffffffffffffff168152602001908152602001600020600082825461187591906133bf565b92505081905550816002600083815260200190815260200160002060006101000a81548173ffffffffffffffffffffffffffffffffffffffff021916908373ffffffffffffffffffffffffffffffffffffffff160217905550808273ffffffffffffffffffffffffffffffffffffffff168473ffffffffffffffffffffffffffffffffffffffff167fddf252ad1be2c89b69c2b068fc378daa952ba7f163c4a11628f55a4df523b3ef60405160405180910390a46119348383836120e1565b505050565b600081600001549050919050565b606060008251905060008114156119705760405180602001604052806000815250915050611b00565b6000600360028361198191906133bf565b61198b9190613415565b60046119979190613446565b905060006020826119a891906133bf565b67ffffffffffffffff8111156119e7577f4e487b7100000000000000000000000000000000000000000000000000000000600052604160045260246000fd5b6040519080825280601f01601f191660200182016040528015611a195781602001600182028036833780820191505090505b5090506000604051806060016040528060408152602001613f07604091399050600181016020830160005b86811015611abd5760038101905062ffffff818a015116603f8160121c168401518060081b905060ff603f83600c1c1686015116810190508060081b905060ff603f8360061c1686015116810190508060081b905060ff603f831686015116810190508060e01b90508084526004840193505050611a44565b506003860660018114611ad75760028114611ae757611af2565b613d3d60f01b6002830352611af2565b603d60f81b60018303525b508484525050819450505050505b919050565b611b1f8282604051806020016040528060008152506120e6565b5050565b611b2c826114c7565b611b6b576040517f08c379a0000000000000000000000000000000000000000000000000000000008152600401611b6290613216565b60405180910390fd5b80600660008481526020019081526020016000209080519060200190611b929291906124d5565b505050565b6001816000016000828254019250508190555050565b611c47838383604051602401611bc593929190613098565b6040516020818303038152906040527fe3849f79000000000000000000000000000000000000000000000000000000007bffffffffffffffffffffffffffffffffffffffffffffffffffffffff19166020820180517bffffffffffffffffffffffffffffffffffffffffffffffffffffffff83818316178352505050506120b3565b505050565b60606000821415611c94576040518060400160405280600181526020017f30000000000000000000000000000000000000000000000000000000000000008152509050611df4565b600082905060005b60008214611cc6578080611caf906135ed565b915050600a82611cbf9190613415565b9150611c9c565b60008167ffffffffffffffff811115611d08577f4e487b7100000000000000000000000000000000000000000000000000000000600052604160045260246000fd5b6040519080825280601f01601f191660200182016040528015611d3a5781602001600182028036833780820191505090505b5090505b60008514611ded57600182611d5391906134a0565b9150600a85611d629190613636565b6030611d6e91906133bf565b60f81b818381518110611daa577f4e487b7100000000000000000000000000000000000000000000000000000000600052603260045260246000fd5b60200101907effffffffffffffffffffffffffffffffffffffffffffffffffffffffffffff1916908160001a905350600a85611de69190613415565b9450611d3e565b8093505050505b919050565b600081604051602001611e0c9190612db1565b6040516020818303038152906040528051906020012060001c9050919050565b8173ffffffffffffffffffffffffffffffffffffffff168373ffffffffffffffffffffffffffffffffffffffff161415611e9b576040517f08c379a0000000000000000000000000000000000000000000000000000000008152600401611e9290613176565b60405180910390fd5b80600560008573ffffffffffffffffffffffffffffffffffffffff1673ffffffffffffffffffffffffffffffffffffffff16815260200190815260200160002060008473ffffffffffffffffffffffffffffffffffffffff1673ffffffffffffffffffffffffffffffffffffffff16815260200190815260200160002060006101000a81548160ff0219169083151502179055508173ffffffffffffffffffffffffffffffffffffffff168373ffffffffffffffffffffffffffffffffffffffff167f17307eab39ab6107e8899845ad3d59bd9653f200f220920489ca2b5937696c3183604051611f8c919061302b565b60405180910390a3505050565b611fa48484846116d2565b611fb084848484612141565b611fef576040517f08c379a0000000000000000000000000000000000000000000000000000000008152600401611fe6906130d6565b60405180910390fd5b50505050565b606060405180602001604052806000815250905090565b6060612017826114c7565b612056576040517f08c379a000000000000000000000000000000000000000000000000000000000815260040161204d90613296565b60405180910390fd5b6000612060611ff5565b9050600081511161208057604051806020016040528060008152506120ab565b8061208a84611c4c565b60405160200161209b929190612dc8565b6040516020818303038152906040525b915050919050565b60008151905060006a636f6e736f6c652e6c6f679050602083016000808483855afa5050505050565b505050565b505050565b6120f083836122d8565b6120fd6000848484612141565b61213c576040517f08c379a0000000000000000000000000000000000000000000000000000000008152600401612133906130d6565b60405180910390fd5b505050565b60006121628473ffffffffffffffffffffffffffffffffffffffff166124b2565b156122cb578373ffffffffffffffffffffffffffffffffffffffff1663150b7a0261218b611533565b8786866040518563ffffffff1660e01b81526004016121ad9493929190612fa8565b602060405180830381600087803b1580156121c757600080fd5b505af19250505080156121f857506040513d601f19601f820116820180604052508101906121f59190612819565b60015b61227b573d8060008114612228576040519150601f19603f3d011682016040523d82523d6000602084013e61222d565b606091505b50600081511415612273576040517f08c379a000000000000000000000000000000000000000000000000000000000815260040161226a906130d6565b60405180910390fd5b805181602001fd5b63150b7a0260e01b7bffffffffffffffffffffffffffffffffffffffffffffffffffffffff1916817bffffffffffffffffffffffffffffffffffffffffffffffffffffffff1916149150506122d0565b600190505b949350505050565b600073ffffffffffffffffffffffffffffffffffffffff168273ffffffffffffffffffffffffffffffffffffffff161415612348576040517f08c379a000000000000000000000000000000000000000000000000000000000815260040161233f90613236565b60405180910390fd5b612351816114c7565b15612391576040517f08c379a000000000000000000000000000000000000000000000000000000000815260040161238890613116565b60405180910390fd5b61239d600083836120dc565b6001600360008473ffffffffffffffffffffffffffffffffffffffff1673ffffffffffffffffffffffffffffffffffffffff16815260200190815260200160002060008282546123ed91906133bf565b92505081905550816002600083815260200190815260200160002060006101000a81548173ffffffffffffffffffffffffffffffffffffffff021916908373ffffffffffffffffffffffffffffffffffffffff160217905550808273ffffffffffffffffffffffffffffffffffffffff16600073ffffffffffffffffffffffffffffffffffffffff167fddf252ad1be2c89b69c2b068fc378daa952ba7f163c4a11628f55a4df523b3ef60405160405180910390a46124ae600083836120e1565b5050565b6000808273ffffffffffffffffffffffffffffffffffffffff163b119050919050565b8280546124e19061358a565b90600052602060002090601f016020900481019282612503576000855561254a565b82601f1061251c57805160ff191683800117855561254a565b8280016001018555821561254a579182015b8281111561254957825182559160200191906001019061252e565b5b509050612557919061255b565b5090565b5b8082111561257457600081600090555060010161255c565b5090565b600061258b61258684613336565b613311565b9050828152602081018484840111156125a357600080fd5b6125ae848285613548565b509392505050565b6000813590506125c581613e85565b92915050565b6000813590506125da81613e9c565b92915050565b6000813590506125ef81613eb3565b92915050565b60008151905061260481613eb3565b92915050565b600082601f83011261261b57600080fd5b813561262b848260208601612578565b91505092915050565b60008135905061264381613eca565b92915050565b60006020828403121561265b57600080fd5b6000612669848285016125b6565b91505092915050565b6000806040838503121561268557600080fd5b6000612693858286016125b6565b92505060206126a4858286016125b6565b9150509250929050565b6000806000606084860312156126c357600080fd5b60006126d1868287016125b6565b93505060206126e2868287016125b6565b92505060406126f386828701612634565b9150509250925092565b6000806000806080858703121561271357600080fd5b6000612721878288016125b6565b9450506020612732878288016125b6565b935050604061274387828801612634565b925050606085013567ffffffffffffffff81111561276057600080fd5b61276c8782880161260a565b91505092959194509250565b6000806040838503121561278b57600080fd5b6000612799858286016125b6565b92505060206127aa858286016125cb565b9150509250929050565b600080604083850312156127c757600080fd5b60006127d5858286016125b6565b92505060206127e685828601612634565b9150509250929050565b60006020828403121561280257600080fd5b6000612810848285016125e0565b91505092915050565b60006020828403121561282b57600080fd5b6000612839848285016125f5565b91505092915050565b60006020828403121561285457600080fd5b600061286284828501612634565b91505092915050565b612874816134d4565b82525050565b612883816134e6565b82525050565b60006128948261337c565b61289e8185613392565b93506128ae818560208601613557565b6128b781613723565b840191505092915050565b60006128cd82613387565b6128d781856133a3565b93506128e7818560208601613557565b6128f081613723565b840191505092915050565b600061290682613387565b61291081856133b4565b9350612920818560208601613557565b80840191505092915050565b600081546129398161358a565b61294381866133b4565b9450600182166000811461295e576001811461296f576129a2565b60ff198316865281860193506129a2565b61297885613367565b60005b8381101561299a5781548189015260018201915060208101905061297b565b838801955050505b50505092915050565b60006129b86025836133b4565b91506129c382613734565b602582019050919050565b60006129db6006836133b4565b91506129e682613783565b600682019050919050565b60006129fe6009836133b4565b9150612a09826137ac565b600982019050919050565b6000612a216032836133a3565b9150612a2c826137d5565b604082019050919050565b6000612a446025836133a3565b9150612a4f82613824565b604082019050919050565b6000612a67601c836133a3565b9150612a7282613873565b602082019050919050565b6000612a8a600a836133b4565b9150612a958261389c565b600a82019050919050565b6000612aad600a836133a3565b9150612ab8826138c5565b602082019050919050565b6000612ad06024836133a3565b9150612adb826138ee565b604082019050919050565b6000612af36019836133a3565b9150612afe8261393d565b602082019050919050565b6000612b166063836133b4565b9150612b2182613966565b606382019050919050565b6000612b39600b836133b4565b9150612b4482613a01565b600b82019050919050565b6000612b5c602c836133a3565b9150612b6782613a2a565b604082019050919050565b6000612b7f600d836133b4565b9150612b8a82613a79565b600d82019050919050565b6000612ba26038836133a3565b9150612bad82613aa2565b604082019050919050565b6000612bc5602a836133a3565b9150612bd082613af1565b604082019050919050565b6000612be86029836133a3565b9150612bf382613b40565b604082019050919050565b6000612c0b602e836133a3565b9150612c1682613b8f565b604082019050919050565b6000612c2e6002836133b4565b9150612c3982613bde565b600282019050919050565b6000612c516020836133a3565b9150612c5c82613c07565b602082019050919050565b6000612c746031836133a3565b9150612c7f82613c30565b604082019050919050565b6000612c97602c836133a3565b9150612ca282613c7f565b604082019050919050565b6000612cba6027836133b4565b9150612cc582613cce565b602782019050919050565b6000612cdd602f836133a3565b9150612ce882613d1d565b604082019050919050565b6000612d006021836133a3565b9150612d0b82613d6c565b604082019050919050565b6000612d23600a836133b4565b9150612d2e82613dbb565b600a82019050919050565b6000612d46601d836133b4565b9150612d5182613de4565b601d82019050919050565b6000612d696031836133a3565b9150612d7482613e0d565b604082019050919050565b6000612d8c6004836133b4565b9150612d9782613e5c565b600482019050919050565b612dab8161353e565b82525050565b6000612dbd82846128fb565b915081905092915050565b6000612dd482856128fb565b9150612de082846128fb565b91508190509392505050565b6000612df882866128fb565b9150612e0482856128fb565b9150612e1082846128fb565b9150819050949350505050565b6000612e29828761292c565b9150612e3482612cad565b9150612e4082866128fb565b9150612e4b82612d7f565b9150612e57828561292c565b9150612e6382846128fb565b9150612e6e82612b72565b915081905095945050505050565b6000612e87826129ab565b9150612e9382846128fb565b915081905092915050565b6000612ea9826129ce565b9150612eb582846128fb565b915081905092915050565b6000612ecb826129f1565b9150612ed782856128fb565b9150612ee282612b09565b9150612eee82846128fb565b9150612ef982612c21565b91508190509392505050565b6000612f1082612a7d565b9150612f1c82846128fb565b915081905092915050565b6000612f3282612b2c565b9150612f3e82846128fb565b915081905092915050565b6000612f5482612d16565b9150612f6082846128fb565b915081905092915050565b6000612f7682612d39565b9150612f8282846128fb565b915081905092915050565b6000602082019050612fa2600083018461286b565b92915050565b6000608082019050612fbd600083018761286b565b612fca602083018661286b565b612fd76040830185612da2565b8181036060830152612fe98184612889565b905095945050505050565b6000606082019050613009600083018661286b565b6130166020830185612da2565b6130236040830184612da2565b949350505050565b6000602082019050613040600083018461287a565b92915050565b6000602082019050818103600083015261306081846128c2565b905092915050565b6000604082019050818103600083015261308281856128c2565b90506130916020830184612da2565b9392505050565b600060608201905081810360008301526130b281866128c2565b90506130c16020830185612da2565b6130ce604083018461286b565b949350505050565b600060208201905081810360008301526130ef81612a14565b9050919050565b6000602082019050818103600083015261310f81612a37565b9050919050565b6000602082019050818103600083015261312f81612a5a565b9050919050565b6000602082019050818103600083015261314f81612aa0565b9050919050565b6000602082019050818103600083015261316f81612ac3565b9050919050565b6000602082019050818103600083015261318f81612ae6565b9050919050565b600060208201905081810360008301526131af81612b4f565b9050919050565b600060208201905081810360008301526131cf81612b95565b9050919050565b600060208201905081810360008301526131ef81612bb8565b9050919050565b6000602082019050818103600083015261320f81612bdb565b9050919050565b6000602082019050818103600083015261322f81612bfe565b9050919050565b6000602082019050818103600083015261324f81612c44565b9050919050565b6000602082019050818103600083015261326f81612c67565b9050919050565b6000602082019050818103600083015261328f81612c8a565b9050919050565b600060208201905081810360008301526132af81612cd0565b9050919050565b600060208201905081810360008301526132cf81612cf3565b9050919050565b600060208201905081810360008301526132ef81612d5c565b9050919050565b600060208201905061330b6000830184612da2565b92915050565b600061331b61332c565b905061332782826135bc565b919050565b6000604051905090565b600067ffffffffffffffff821115613351576133506136f4565b5b61335a82613723565b9050602081019050919050565b60008190508160005260206000209050919050565b600081519050919050565b600081519050919050565b600082825260208201905092915050565b600082825260208201905092915050565b600081905092915050565b60006133ca8261353e565b91506133d58361353e565b9250827fffffffffffffffffffffffffffffffffffffffffffffffffffffffffffffffff0382111561340a57613409613667565b5b828201905092915050565b60006134208261353e565b915061342b8361353e565b92508261343b5761343a613696565b5b828204905092915050565b60006134518261353e565b915061345c8361353e565b9250817fffffffffffffffffffffffffffffffffffffffffffffffffffffffffffffffff048311821515161561349557613494613667565b5b828202905092915050565b60006134ab8261353e565b91506134b68361353e565b9250828210156134c9576134c8613667565b5b828203905092915050565b60006134df8261351e565b9050919050565b60008115159050919050565b60007fffffffff0000000000000000000000000000000000000000000000000000000082169050919050565b600073ffffffffffffffffffffffffffffffffffffffff82169050919050565b6000819050919050565b82818337600083830152505050565b60005b8381101561357557808201518184015260208101905061355a565b83811115613584576000848401525b50505050565b600060028204905060018216806135a257607f821691505b602082108114156135b6576135b56136c5565b5b50919050565b6135c582613723565b810181811067ffffffffffffffff821117156135e4576135e36136f4565b5b80604052505050565b60006135f88261353e565b91507fffffffffffffffffffffffffffffffffffffffffffffffffffffffffffffffff82141561362b5761362a613667565b5b600182019050919050565b60006136418261353e565b915061364c8361353e565b92508261365c5761365b613696565b5b828206905092915050565b7f4e487b7100000000000000000000000000000000000000000000000000000000600052601160045260246000fd5b7f4e487b7100000000000000000000000000000000000000000000000000000000600052601260045260246000fd5b7f4e487b7100000000000000000000000000000000000000000000000000000000600052602260045260246000fd5b7f4e487b7100000000000000000000000000000000000000000000000000000000600052604160045260246000fd5b6000601f19601f8301169050919050565b7f68747470733a2f2f6e6674707265766965772e30786465762e636f6465732f3f60008201527f636f64653d000000000000000000000000000000000000000000000000000000602082015250565b7f434f4c4f52530000000000000000000000000000000000000000000000000000600082015250565b7f7b226e616d65223a220000000000000000000000000000000000000000000000600082015250565b7f4552433732313a207472616e7366657220746f206e6f6e20455243373231526560008201527f63656976657220696d706c656d656e7465720000000000000000000000000000602082015250565b7f4552433732313a207472616e736665722066726f6d20696e636f72726563742060008201527f6f776e6572000000000000000000000000000000000000000000000000000000602082015250565b7f4552433732313a20746f6b656e20616c7265616479206d696e74656400000000600082015250565b7f54484952445f574f524400000000000000000000000000000000000000000000600082015250565b7f4d696e74206f7665722e00000000000000000000000000000000000000000000600082015250565b7f4552433732313a207472616e7366657220746f20746865207a65726f2061646460008201527f7265737300000000000000000000000000000000000000000000000000000000602082015250565b7f4552433732313a20617070726f766520746f2063616c6c657200000000000000600082015250565b7f222c20226465736372697074696f6e223a20224120686967686c79206163636c60008201527f61696d656420636f6c6c656374696f6e206f6620737175617265732e222c202260208201527f696d616765223a2022646174613a696d6167652f7376672b786d6c3b6261736560408201527f36342c0000000000000000000000000000000000000000000000000000000000606082015250565b7f5345434f4e445f574f5244000000000000000000000000000000000000000000600082015250565b7f4552433732313a206f70657261746f7220717565727920666f72206e6f6e657860008201527f697374656e7420746f6b656e0000000000000000000000000000000000000000602082015250565b7f3c2f746578743e3c2f7376673e00000000000000000000000000000000000000600082015250565b7f4552433732313a20617070726f76652063616c6c6572206973206e6f74206f7760008201527f6e6572206e6f7220617070726f76656420666f7220616c6c0000000000000000602082015250565b7f4552433732313a2062616c616e636520717565727920666f7220746865207a6560008201527f726f206164647265737300000000000000000000000000000000000000000000602082015250565b7f4552433732313a206f776e657220717565727920666f72206e6f6e657869737460008201527f656e7420746f6b656e0000000000000000000000000000000000000000000000602082015250565b7f45524337323155524953746f726167653a2055524920736574206f66206e6f6e60008201527f6578697374656e7420746f6b656e000000000000000000000000000000000000602082015250565b7f227d000000000000000000000000000000000000000000000000000000000000600082015250565b7f4552433732313a206d696e7420746f20746865207a65726f2061646472657373600082015250565b7f45524337323155524953746f726167653a2055524920717565727920666f722060008201527f6e6f6e6578697374656e7420746f6b656e000000000000000000000000000000602082015250565b7f4552433732313a20617070726f76656420717565727920666f72206e6f6e657860008201527f697374656e7420746f6b656e0000000000000000000000000000000000000000602082015250565b7f3c726563742077696474683d273130302527206865696768743d27313030252760008201527f2066696c6c3d2700000000000000000000000000000000000000000000000000602082015250565b7f4552433732314d657461646174613a2055524920717565727920666f72206e6f60008201527f6e6578697374656e7420746f6b656e0000000000000000000000000000000000602082015250565b7f4552433732313a20617070726f76616c20746f2063757272656e74206f776e6560008201527f7200000000000000000000000000000000000000000000000000000000000000602082015250565b7f46495253545f574f524400000000000000000000000000000000000000000000600082015250565b7f646174613a6170706c69636174696f6e2f6a736f6e3b6261736536342c000000600082015250565b7f4552433732313a207472616e736665722063616c6c6572206973206e6f74206f60008201527f776e6572206e6f7220617070726f766564000000000000000000000000000000602082015250565b7f27202f3e00000000000000000000000000000000000000000000000000000000600082015250565b613e8e816134d4565b8114613e9957600080fd5b50565b613ea5816134e6565b8114613eb057600080fd5b50565b613ebc816134f2565b8114613ec757600080fd5b50565b613ed38161353e565b8114613ede57600080fd5b5056fe416e204e465420772f20494420257320686173206265656e206d696e74656420746f2025734142434445464748494a4b4c4d4e4f505152535455565758595a6162636465666768696a6b6c6d6e6f707172737475767778797a303132333435363738392b2fa2646970667358221220652475bb74eb929ef4933ce33d219863a6c40feca1bc25ba909e9ed66cec54ac64736f6c634300080100333c73766720786d6c6e733d27687474703a2f2f7777772e77332e6f72672f323030302f73766727207072657365727665417370656374526174696f3d27784d696e594d696e206d656574272076696577426f783d273020302033353020333530273e3c7374796c653e2e62617365207b2066696c6c3a2077686974653b20666f6e742d66616d696c793a2073657269663b20666f6e742d73697a653a20313470783b207d3c2f7374796c653e3c7465787420783d273530252720793d273530252720636c6173733d27626173652720646f6d696e616e742d626173656c696e653d276d6964646c652720746578742d616e63686f723d276d6964646c65273e",
  "linkReferences": {},
  "deployedLinkReferences": {}
}